:100000000C94B2060C94F9060C94F9060C94F906BB
:100010000C94F9060C94F9060C94F9060C94F90664
:100020000C94F9060C94F9060C9456240C9429258A
:100030000C94D21B0C94F9060C94F9060C94F90656
:100040000C94F9060C94F9060C94F9060C94F90634
:100050000C94F9060C94381C0C94F9060C94F906CF
:100060000C94F9060C94F9060C94F9060C94F90614
:100070000C94F9060C94F9060C94F9060C94F90604
:100080000C94F9060C94F9060C94F9060C94F906F4
:100090000C94F9060C94F9060C94F9060C94F906E4
:1000A0000C94F9060C94F9060C94F9061E001F0036
:1000B0002200000000002300260027002900200065
:1000C000210000000000240025002A004C00080048
:1000D00015000000000018000C00310014001A0088
:1000E00017002F0030001C00120013002B00070027
:1000F00009000A000B000D000E0028000400160085
:1001000006004B004E0036000F003300E0001B00DD
:100110001900050011001000370038001D00E00034
:10012000E3000151025151005200E100E100E00002
:10013000E2002C00280050004F00E0000100010008
:1001400001000000000001000100010001000100A9
:10015000010000000000010001000100007001002A
:100160000100000000000100010001000100010089
:100170000100010001000100010001000100010077
:100180000100010001000100010001000100010067
:100190000100010001000100010001000100010057
:1001A0000100010001000100010001000100010047
:1001B0000100010001000100010001000100010037
:1001C0000100010001000100010001000100010027
:1001D0000100000000000100010001000100010019
:1001E0000100000000000100010001000100010009
:1001F00001000000000001000100010001000100F9
:1002000001000100010001000100010001000100E6
:1002100001000100010001000100010001000100D6
:1002200001000100010001000100010001000100C6
:1002300001000100010001000100010001000100B6
:1002400001000100010001000100010001000100A6
:100250000100010001000100010001000100010096
:100260000100000000000100010001000100010088
:100270000100000000000100010001000100010078
:100280000100000000000100010001000100010068
:100290000100010001000100010001000100010056
:1002A0000100010001000100010001000100010046
:1002B0000100010001000100010001000100010036
:1002C0000100010001000100010001000100010026
:1002D0000100010001000100010001000100010016
:1002E0000100010001000100010001000100010006
:1002F00001000000000001000100010001000100F8
:1003000001000000000001000100010001000100E7
:1003100001000000000001000100010001000100D7
:1003200001000100010001000100010001000100C5
:1003300001000100010001000100010001000100B5
:1003400001000100010001000100010001000100A5
:100350000100010001000100010001000100010095
:100360000100010001000100010001000100010085
:100370000100010001000100010001000100010075
:100380000100000000000100010001000100010067
:100390000100000000000100010001000100010057
:1003A0000100000000000100010001000100010047
:1003B0000100010001000100010001000100010035
:1003C0000100010001000100010001000100010025
:1003D0000100010001000100010001000100010015
:1003E0000100010001000100010001000100010005
:1003F00001000100010001000100010001000100F5
:1004000001000100010001000100010001000100E4
:1004100001000000000001000100010001000100D6
:1004200001000000000001000100010001000100C6
:1004300001000000000001000100010001000100B6
:1004400001000100010001000100010001000100A4
:100450000100010001000100010001000100010094
:100460000100010001000100010001000100010084
:100470000100010001000100010001000100010074
:100480000100010001000100010001000100010064
:100490000100010001000100010001000100010054
:1004A0000100000000000100010001000100010046
:1004B0000100000000000100010001000100010036
:1004C0000100000000000100010001000100010026
:1004D0000100010001000100010001000100010014
:1004E0000100010001000100010001000100010004
:1004F00001000100010001000100010001000100F4
:1005000001000100010001000100010001000100E3
:1005100001000100010001000100010001000100D3
:1005200001000100010001000100010001000100C3
:1005300001000000000001000100010001000100B5
:1005400001000000000001000100010001000100A5
:100550000100000000000100010001000100010095
:100560000100010001000100010001000100010083
:100570000100010001000100010001000100010073
:100580000100010001000100010001000100010063
:100590000100010001000100010001000100010053
:1005A0000100010001000100010001000100010043
:1005B0000100010001000100010001000100010033
:1005C0000100000000000100010001000100010025
:1005D0000100000000000100010001000100010015
:1005E0000100000000000100010001000100010005
:1005F00001000100010001000100010001000100F3
:1006000001000100010001000100010001000100E2
:1006100001000100010001000100010001000100D2
:1006200001000100010001000100010001000100C2
:1006300001000100010001000100010001000100B2
:1006400001000100010001000100010001000100A2
:100650000100000000000100010001000100010094
:100660000100000000000100010001000100010084
:100670000100000000000100010001000100010074
:100680000100010001000100010001000100010062
:100690000100010001000100010001000100010052
:1006A0000100010001000100010001000100010042
:1006B0000100010001000100010001000100010032
:1006C0000100010001000100010001000100010022
:1006D0000100010001000100010001000100010012
:1006E0000100000000000100010001000100010004
:1006F00001000000000001000100010001000100F4
:1007000001000000000001000100010001000100E3
:1007100001000100010001000100010001000100D1
:1007200001000100010001000100010001000100C1
:1007300001000100010001000100010001000100B1
:1007400001000100010001000100010001000100A1
:100750000100010001000100010001000100010091
:100760000100010001000100010001000100010081
:100770000100000000000100010001000100010073
:100780000100000000000100010001000100010063
:100790000100000000000100010001000100010053
:1007A0000100010001000100010001000100010041
:1007B0000100010001000100010001000100010031
:1007C0000100010001000100010001000100010021
:1007D0000100010001000100010001000100010011
:1007E0000100010001000100010001000100010001
:1007F00001000100010001000100010001000100F1
:1008000001000000000001000100010001000100E2
:1008100001000000000001000100010001000100D2
:1008200001000000000001000100010001000100C2
:1008300001000100010001000100010001000100B0
:1008400001000100010001000100010001000100A0
:100850000100010001000100010001000100010090
:100860000100010001000100010001000100010080
:100870000100010001000100010001000100010070
:100880000100010001000100010001000100010060
:100890000100000000000100010001000100010052
:1008A0000100000000000100010001000100010042
:1008B0000100000000000100010001000100010032
:1008C0000100010001000100010001000100010020
:1008D0000100010001000100010001000100010010
:1008E0000100010001000100010001000100010000
:1008F00001000100010001000100010001000100F0
:1009000001000100010001000100010001000100DF
:1009100001000100010001000100010001000100CF
:1009200001000000000001000100010001000100C1
:1009300001000000000001000100010001000100B1
:1009400001000000000001000100010001000100A1
:10095000010001000100010001000100010001008F
:10096000010001000100010001000100010001007F
:10097000010001000100010001000100010001006F
:10098000010001000100010001000100010001005F
:10099000010001000100010001000100010001004F
:1009A0000100010001000100010001006432146433
:1009B0003214783C1E1E140A0500000000010101DB
:1009C0000202030405050607090A0B0C0E0F11129B
:1009D000141517191B1D1F212325282A2C2F3134EC
:1009E00036393B3E414346494C4F5255585A5D615A
:1009F00064676A6D707376797C7F8386898C8F9249
:100A000095989B9EA2A5A7AAADB0B3B6B9BCBEC12E
:100A1000C4C6C9CBCED0D3D5D7DADCDEE0E2E4E67B
:100A2000E8EAEBEDEEF0F1F3F4F5F6F8F9FAFAFB9B
:100A3000FCFDFDFEFEFEFFFFFFFFFFFFFFFEFEFED3
:100A4000FDFDFCFBFAFAF9F8F6F5F4F3F1F0EEED42
:100A5000EBEAE8E6E4E2E0DEDCDAD7D5D3D0CECBD1
:100A6000C9C6C4C1BEBCB9B6B3B0ADAAA7A5A29E43
:100A70009B9895928F8C898683807C797673706D34
:100A80006A6764615D5A5855524F4C494643413E2E
:100A90003B393634312F2C2A282523211F1D1B19C1
:100AA00017151412110F0E0C0B0A09070605050481
:100AB000030202010101000000000000000001012A
:100AC000010101010101010202020202020202020D
:100AD00003030303030303030404040404040505DC
:100AE000050505060606060607070707080808089D
:100AF0000909090A0A0A0A0B0B0B0C0C0C0D0D0D47
:100B00000E0E0F0F0F1010111111121213131414D7
:100B1000151516161717181819191A1A1B1C1C1D4B
:100B20001D1E1F1F202021222223242525262727A2
:100B300028292A2B2B2C2D2E2F2F303132333435D0
:100B400036363738393A3B3C3D3E3F4041424344DC
:100B5000464748494A4B4C4D4F50515253555657B2
:100B6000585A5B5C5E5F606263646667696A6C6D5D
:100B70006E707173747678797B7C7E8081838486D5
:100B8000888A8B8D8F91929496989A9B9D9FA1A312
:100B9000A5A7A9ABADAFB1B3B5B7B9BBBDBFC1C414
:100BA000C6C8CACCCFD1D3D6D8DADCDFE1E4E6E8D8
:100BB000EBEDF0F2F5F7FAFCFF12036B006500793C
:100BC0000062006F00610072006400000016037193
:100BD000006D006B006200750069006C00640065C8
:100BE00000720000000403090409026D0004010002
:100BF000A0FA09040000010301010009211101000C
:100C0000012240000705810308000A0904010001D0
:100C100003010200092111010001224D0007058294
:100C20000308000A09040200010300000009211161
:100C30000100012236000705830308000A090403A6
:100C40000001030000000921110100012239000701
:100C50000584032000011201100100000008EDFED0
:100C6000606001000102000105010906A1010507FC
:100C700019E029E71500250195087501810205088D
:100C800019012905950575019102950175039101D9
:100C90000507190029F71500250195F8750181024E
:100CA000C005010980A10185021601002603001A72
:100CB00081002A8300751095018100C0050C09018F
:100CC000A1018503160100269C021A01002A9C023C
:100CD000751095018100C005010902A1010901A15A
:100CE00000050919012905150025019505750181E2
:100CF000029501750381010501093009311581252E
:100D00007F95027508810609381581257F95017543
:100D1000088106050C0A38021581257F95017508A2
:100D20008106C0C005010906A101050719E029E7F0
:100D3000150025019508750181029501750881014D
:100D4000050819012905950575019102950175039D
:100D500091010507190029FF150026FF009506756A
:100D6000088100C011241FBECFEFDAE0DEBFCDBF87
:100D700004B603FE27C08091630290916402A091A3
:100D80006502B09166028730904BA740B04BD1F41A
:100D90001092630210926402109265021092660231
:100DA00014BE84B7877F84BF0FB6F894A89580914E
:100DB0006000886180936000109260000FBEE0E0E8
:100DC000F8E3099511E0A0E0B1E0E6E9F1E502C041
:100DD00005900D92AA33B107D9F722E0AAE3B1E05A
:100DE00001C01D92A336B207E1F70E94A3210C9423
:100DF0007A280C94000090E080E00895089508950A
:100E000081E00895089581E008950C9400070E9400
:100E10007E142FEF84E39CE0215080409040E1F766
:100E200000C000000C945B1CFF920F931F93CF93A4
:100E3000DF938C01FC01C081D181809188018111F7
:100E400048C08281882309F43FC0CE010E94AF19B7
:100E5000F82E682FCE010E945A19BE018F2D0E94D4
:100E60009E08EC01B8010E940507882309F478C0A8
:100E7000B801CE010E94AB0A882309F471C0C633C1
:100E8000F0E7DF0709F484C0C0F5C53190E7D90762
:100E900028F5C230E0E7DE0708F099C0C115F0E799
:100EA000DF0709F458C0C130D04709F460C081E0C1
:100EB00080933C0180933D01C801DF91CF911F9148
:100EC0000F91FF900C940307CE010E948719F82E12
:100ED000C4CFCE010E94AF19BE01C1CFC43390E789
:100EE000D90709F44EC0C533D04709F7F80182810C
:100EF0008823B1F10E94650E33C0CA33F0E7DF07E3
:100F000009F457C070F4F8018281C833F0E7DF07B5
:100F100009F44AC008F443C0882311F10E94A90DC6
:100F20001FC0CC33E0E7DE0709F4C3C008F448C0B3
:100F3000CD33D04709F0BBCFF8018281882309F473
:100F4000DFC010923D010E94021C90933B018093F0
:100F50003A0180E2BBC0F801828181110E9407073B
:100F600080E0DF91CF911F910F91FF900895F801DC
:100F700082818823A9F380911B02816080931B02E8
:100F8000EFCFF8018281882359F30E946F0EE8CFDA
:100F9000F8018281882321F30E945A0DE1CF882332
:100FA000F9F20E94720DDCCF8823D1F20E94910DDC
:100FB000D7CFF8018281882399F20E94C10DD0CF4A
:100FC000F8018281882361F20E94D90DC9CFF8010E
:100FD0008281882309F470CF0E94641B811102C0B2
:100FE0000E94431B0E94811B90E0909355028093C6
:100FF0005402FE01E350F047809154028160E231D7
:10100000F10538F4E458F74D0C94272880915402E8
:10101000826080935402809154020E94851B0E943A
:101020007E149ECF809154028460F3CF809154024D
:101030008860EFCF809154028061EBCF80915402A1
:101040008062E7CF809154028064E3CF80915402A4
:101050008068DFCF809154028C60DBCF8091540296
:101060008E7FD7CF809154028D7FD3CF8091540251
:101070008B7FCFCF80915402877FCBCF809154025A
:101080008F7EC7CF809154028F7DC3CF8091540251
:101090008F7BBFCF809154028F77BBCF809154025A
:1010A000837FB7CF90915402892F97FB87F980589F
:1010B000B0CFF8018281882361F010923C010E9438
:1010C000021C90933B0180933A0182E00E9434120B
:1010D00047CF80913C0181110FC080913A019091DE
:1010E0003B010E940E1C883C910530F486E20E9470
:1010F000091186E20E94E51182E00E943B1230CF86
:1011000080913D0181110FC080913A0190913B0186
:101110000E940E1C883C910530F487E20E94091160
:1011200087E20E94E51180E2E8CF0C94FA0A0C9461
:10113000FC0A0C9402070C9499080895E72FF0E03C
:1011400099E0899FE00DF11D112483E0EE0FFF1F50
:101150008A95E1F7E60FF11DEE0FFF1FE455FF4FF3
:10116000859194910895FC01EE0FFF1FE455F64F11
:101170008591949108950E949E080E942F0A8115DE
:1011800020E4920708F08FC0811540E3940708F02F
:10119000ECC0803E910508F073C0803C910508F0DA
:1011A000D0C0883A910590F4853A910508F0CEC0F8
:1011B0008130910509F470C0009709F46DC0843046
:1011C000910508F069C090E080E008958D3B91059D
:1011D000D0F7883A910509F403C1893A910509F4D9
:1011E00002C18A3A910509F401C18B3A910509F4CB
:1011F00000C18C3A910509F4FFC08B3B910509F4BD
:10120000FEC08C3B910509F4FDC08D3A910509F4AF
:10121000FCC0803B910509F4FBC08E3A910509F4AE
:10122000FAC08F3A910509F4F9C0813B910509F4A0
:10123000F8C0823B910509F4F7C0833B910509F49E
:10124000F6C0843B910509F4F5C0853B910509F48E
:10125000F4C0863B910509F4F3C0873B910509F47E
:10126000F2C0883B910509F4F1C0893B910509F46E
:10127000F0C08A3B910509F4EFC080E094E4089542
:101280008F3F910509F048F4803F910508F069C04F
:10129000883E910508F097CF0895811560E2960782
:1012A00008F061C00895811573E5970770F5811501
:1012B00022E5920708F064C0811541E5940708F023
:1012C0005AC0811560E5960708F452C09C0154E0AD
:1012D000369527955A95E1F7922F9370282F2695EA
:1012E0002695237070E2279F90011124392B83707B
:1012F00041E050E0BA0102C0660F771F8A95E2F71D
:10130000CB01822B932B9C680895811575E5970777
:1013100050F4811524E5920708F443C0982F8827DC
:10132000846F906A0895811546E5940708F44DC0CE
:101330009C0130569F702115304108F044CF9062D7
:101340000895805C91090E94B3080895853A91053B
:1013500009F440C0863A910509F03FC082E890E464
:101360000895906508959F70EECF9927906C089529
:101370009F70906A0895982F8827816F906A0895CA
:10138000AC014370552721E030E002C0220F331F2B
:101390004A95E2F78695869570E2879FC0011124F1
:1013A000B0CFAC014370552721E030E002C0220FDE
:1013B000331F4A95E2F78695869540E2849FC001E7
:1013C0001124822B932B9A680895982F88278827B9
:1013D0009F71B5CF81E890E4089583E890E4089583
:1013E00082EE94E4089589EE94E408958AEE94E4FC
:1013F000089585EB94E4089586EB94E4089583EBD7
:1014000094E4089584EB94E4089587EB94E40895BC
:101410008CEC94E408958DEC94E4089583E895E4CD
:1014200008958AE895E4089582E995E4089584E9A9
:1014300095E4089581E296E4089583E296E40895A0
:1014400084E296E4089585E296E4089586E296E4BF
:10145000089587E296E408958AE296E41DCF8238E3
:10146000910549F1B0F48133910509F462C048F463
:101470008932910509F456C08A32910509F460C099
:1014800008958533910509F446C08933910599F093
:101490000895833E910531F138F4803E910591F035
:1014A000823E9105B1F00895863E910521F1873E77
:1014B000910551F10895209154022370D9F080EEE6
:1014C00090E008952091540220FF14C089E390E039
:1014D00008952091540222FF0DC024FD09C083EE1F
:1014E00090E008952091540222FD31C024FF02C0F3
:1014F00090E080E008952091540223FFFBCF24FD6B
:10150000F7CF87EE90E008952091540223FFEECFAD
:1015100086EE90E008952091540225FFEBCF89E2FA
:1015200090E008952091540225FFE4CF85E390E0F8
:1015300008952091540226FFDDCF8AE290E00895BD
:101540002091540226FFD6CF81E390E0089582EEE9
:1015500090E0089508950F931F93CF938C01FB01A2
:101560008281811106C0C1E08C2FCF911F910F9114
:101570000895C0914B01C11125C00531104799F75D
:101580000E94AA0A81E080934B010E94021C909362
:101590004A018093490110923E011092400110923D
:1015A0003F011092420110924101109244011092A9
:1015B0004301109246011092450110924801109289
:1015C0004701D2CF8091490190914A010E940E1C9F
:1015D000883C910540F680913E01E82FF0E0EE0F47
:1015E000FF1FE15CFE4F118300838F5F80933E01FC
:1015F000C0E0BACF0C94FE060C94FF0685B7806855
:1016000085BF85B7806885BFACE1B1E061E070E07F
:101610008D91E82FE295EF70F0E041A18F709B0172
:1016200001C0220F8A95EAF7922F9095942391A3F7
:1016300082A1822B82A381E0A532B80749F7A4E1F9
:10164000B1E061E070E08D91E82FE295EF70F0E09D
:1016500041A18F709B0101C0220F8A95EAF7922F5A
:101660009095942391A382A1822B82A381E0AC3137
:10167000B80749F7E5E5F1E0ACE4B1E08EE591E0CB
:1016800011921D928E179F07D9F70C9495084F92CF
:101690005F926F927F928F929F92AF92BF92CF9202
:1016A000DF92EF92FF920F931F93CF93DF930CE49F
:1016B00011E08CE1C82E81E0D82E2801EE24E394BD
:1016C000F12CBB24B394D2019D902D011E92E60112
:1016D00089916E01E82FE295EF70F0E091A18F7093
:1016E000970101C0220F8A95EAF7892F822B81A3E7
:1016F00082A1822E8094882182A3D0EADA95F1F724
:1017000064E171E090E080E0EB01A990BE014A2D18
:1017100042954F7050E0EA0168A07C905A2D5F70AE
:10172000E70102C0CC0FDD1F5A95E2F7AE0146215A
:1017300009F04FC04E2D082E01C0440F0A94EAF75D
:1017400047294C93019688309105F1F681A18821B3
:1017500081A382A1282B22A38C91981641F0B092EC
:101760005E010E94021C9093600180935F01D5E5A9
:101770004D16D1E05D0609F0A6CF80915E01882369
:10178000A1F080915F01909160010E940E1C06976C
:1017900060F0E5E5F1E0D8018D918D018193B1E034
:1017A00005351B07C1F710925E010E94970881E082
:1017B000DF91CF911F910F91FF90EF90DF90CF902D
:1017C000BF90AF909F908F907F906F905F904F9061
:1017D000089540E0B5CFE82FF0E0EB5AFE4F80814E
:1017E000089508953BB1242F209523233BB1432B2B
:1017F0003FB7F894680F791F8617970711F43FBF1A
:101800000895FC015191CF01E8E04BB9000000C000
:1018100057FF2BB9550F000000C000C000C02BB906
:1018200000C0EA9591F7E8CF2AB1242B2AB99B0191
:10183000220F331F620F731F0E94F20B87EC90E0A0
:101840000197F1F700C00000089548E00C94140CD3
:10185000CF92DF92EF92FF920F931F93CF93DF937C
:10186000E901662309F466C0E42EF12CEFEFF0E005
:10187000E61BF109EE9D8001EF9D100DFE9D100D00
:101880001124212FE12FFF27EE1AFF0A5CE3C52E5A
:10189000D12CB6010E94FF27FB01BC01E69EC001CE
:1018A000E79E900DF69E900D1124B6010E94FF2731
:1018B000E230F10589F168F4812F262F210F30974E
:1018C00081F0242F461B319761F080E020E040E05A
:1018D00008C0E430F10551F128F1842F861B3597BB
:1018E000A1F7E42FF0E0E754F54F4491E22FF0E048
:1018F000E754F54F9491E82FF0E0E754F54FE49169
:1019000049839883EA83DF91CF911F910F91FF90D4
:10191000EF90DF90CF900895862F810FE42F412F15
:101920002E2FDFCFE42FE61B842FF9CF842F462FF5
:10193000410FD7CF842F242FD4CF88E090E00C9490
:101940003A28AB01BC0188E090E00C945828E8E408
:10195000F2E083E0808311828FEF82838383609142
:1019600048027091490280914A0290914B020C9476
:10197000A10C70E060E080E592E00C94250CEF9201
:10198000FF920F931F93CF93DF9300D00F92CDB7A9
:10199000DEB7182FE92EF62E042F80914802909181
:1019A0004902A0914A02B0914B0280934C0290935D
:1019B0004D02A0934E02B0934F028091480280FFE7
:1019C0001CC09E012F5F3F4F812F9E2D0E94280C2F
:1019D00080914C0210FB87F980934C021695809100
:1019E0004D028078812BE0FA87F980934D02F092C6
:1019F0004E0200934F020E94B90C0F900F900F906F
:101A0000DF91CF911F910F91FF90EF9008950F9369
:101A10001F93CF93DF93EC01062F142F9091480270
:101A200090FF43C0892F8E77823021F5CE010E942E
:101A3000BF0C80914802C0FB87F980934802C6958D
:101A4000809149028078C82BD0FBC7F9C093490226
:101A500000934A0210934B02609148027091490230
:101A600080914A0290914B02DF91CF911F910F918B
:101A70000C94A10C892F86958F732EE3280F2F735A
:101A8000243018F410914B02D4CF865C8F738930C8
:101A900080F6991F9927991FD0914902CD2FCC0F1D
:101AA000C92BD7FBDD27D0F9C4CFDF91CF911F9190
:101AB0000F910895E8E4F2E02081221F2227221FDF
:101AC00030914902432F440F842F822B37FB9927F3
:101AD00090F9089668E671E00E94132843816281BC
:101AE0000C94070D20914802221F2227221F3091BB
:101AF0004902432F440F842F822B37FB992790F9FB
:101B00008830910540F4805A9E4F40914B0260917D
:101B10004A020C94070D089768E671E00E941328AA
:101B2000F4CF60914A02683F90F4685F8091480268
:101B3000881F8827881F90914902292F220F97FB21
:101B4000992790F940914B02822B0C94070D6FEF6F
:101B5000EDCF60914A02683090F068508091480261
:101B6000881F8827881F90914902292F220F97FBF1
:101B7000992790F940914B02822B0C94070D60E05D
:101B8000EDCF40914B02483F90F4485F809148026E
:101B9000881F8827881F90914902292F220F97FBC1
:101BA000992790F960914A02822B0C94070D4FEF10
:101BB000EDCF40914B02483090F048508091480260
:101BC000881F8827881F90914902292F220F97FB91
:101BD000992790F960914A02822B0C94070D40E0FE
:101BE000EDCF9091480290FF3BC09178811126C0C3
:101BF00092609093480260914802709149028091EE
:101C00004A0290914B020E94A10C80914802982FA9
:101C10009E779230D9F410927601881F8827881F0A
:101C200090914902292F220F97FB992790F9409113
:101C30004B0260914A02822B0C94070D893110F0FF
:101C40009063D7CF8F73880F982BD3CF982F96950B
:101C5000925C9F73963108F791E090937601DDCF07
:101C6000089580911B02816080931B0281E0809324
:101C700077010E94641B811104C00E94431B0E94D3
:101C8000A70C0E949D0C60934802709349028093B8
:101C90004A0290934B026E7761F40E94A70C0E9457
:101CA0009D0C609348027093490280934A0290937E
:101CB0004B0281E0809376018091480280FF04C04E
:101CC00086958F730C94F10D089580914802869546
:101CD0008F738F5F893108F081E00C94F10D909142
:101CE0004802892F8E7F90FF816080934802609127
:101CF00048027091490280914A0290914B020E94E1
:101D0000A10C8091480280FF04C086958F730C94CB
:101D1000F10D109276012FEF80E792E02150804084
:101D20009040E1F700C000000C94B90CCF93C82F8D
:101D300080917401909175010E940E1CEC2FF0E0CF
:101D4000EB54F64FE491E817190609F010F50E94DC
:101D5000021C9093750180937401E0917301F0E08F
:101D6000E754F64F449180914802881F8827881FC6
:101D700090914902292F220F97FB992790F96091A2
:101D80004A02822B0E94BF0C809173018F5F809367
:101D90007301CF910895CF93C82F809171019091D5
:101DA00072010E940E1CEC2FF0E0EE54F64FE4910D
:101DB000E817190609F0E8F40E94021C90937201DA
:101DC0008093710140914B0260914A0280916F01B2
:101DD000909170010E94BF0C80916F0190917001F1
:101DE000019668E671E00E94FF279093700180934E
:101DF0006F01CF910895CF93C82F80916D0190917D
:101E00006E010E940E1CEC2FE695F0E0EE54F64FAA
:101E1000E491E817190609F0B8F40E94021C9093A7
:101E20006E0180936D010E94B90C80916B019091BD
:101E30006C01C0FF0BC0019668E671E00E94FF27AD
:101E400090936C0180936B01CF9108950197F8CF27
:101E5000CF93DF93C82FDFEF80FFD1E0809169013E
:101E600090916A010E940E1CC695EC2FF0E0E1559E
:101E7000F64FE491E817190609F088F40E94021C55
:101E800090936A01809369010E94B90CD13061F48A
:101E900080916801811106C08FEF80936801DF9106
:101EA000CF9108958150F9CF0E942D28CF93C82F4C
:101EB00080916601909167010E940E1CEC2FF0E06A
:101EC000E455F64FE491E817190609F0B0F40E94C2
:101ED000021C90936701809366010E94B90C909157
:101EE000000180916501913071F48A3F44F489EFDB
:101EF000809365018FEF80930001CF910895815009
:101F000080936501FACF87302CF086E080936501DD
:101F100081E0F1CF8F5FF4CF8091630190916401F4
:101F20000E940E1C883E934098F00E94021C9093E1
:101F30006401809363018091610190916201019637
:101F40008170992790936201809361010C94B90C80
:101F5000089580917601882371F1809148028695D9
:101F60008F739EE3980F9F73943018F482500C94F3
:101F7000960E9AE3980F9F73933018F486500C9442
:101F8000CB0E97E3980F9F73963018F489500C94FA
:101F9000FB0E91E3980F9F73963018F48F500C94BA
:101FA000280F9BE2980F9F73933018F485510C947F
:101FB000560F0C948C0F089590937D0180937C01B3
:101FC0000895E0917C01F0917D01309721F001901E
:101FD000F081E02D099480E00895E0917C01F0917A
:101FE0007D01309721F00280F381E02D099408955E
:101FF000E0917C01F0917D01309721F00480F58122
:10200000E02D0994089520917A0130917B012817E1
:10201000390771F090937B0180937A01E0917C0104
:10202000F0917D01309721F00680F781E02D099431
:10203000089520917801309179012817390771F0BE
:102040009093790180937801E0917C01F0917D017A
:10205000309721F00084F185E02D099408950895CA
:102060000C942F100E94F91B0E94FE0A0E94C01CB3
:102070000C94310EBF92CF92DF92EF92FF920F93AA
:102080001F93CF93DF93CDB7DEB72A970FB6F8949F
:10209000DEBF0FBECDBF0E94470B8FE7C82E81E089
:1020A000D82E10E000E0B02E802F0E94EB0BE82E1F
:1020B000F601F1906F01F81609F45AC080911B02E5
:1020C00081FD0E94F10B90E080E0FE242F2D30E096
:1020D000482FB901082E02C0759567950A94E2F75A
:1020E00060FF41C08E83BF8281E090E06C0102C03E
:1020F000CC0CDD1C4A95E2F72E2D30E02C213D2141
:10210000232B09F480E088870E94021C8160782FCD
:102110009A8789874E815F8168858A850E94DF1052
:10212000F801E158FE4F80818C2580830E943E1F7C
:102130000E94E10F90917E01891789F10E94E10FC1
:1021400080937E012A960FB6F894DEBF0FBECDBFF6
:10215000DF91CF911F910F91FF90EF90DF90CF9083
:10216000BF900C949B0801968830910509F0B0CF80
:102170000F5F1F4F0930110509F095CF8FEF89834D
:102180008A831B820E94021C8160782F9D838C832E
:1021900049815A816B818D810E94DF10C7CF2A96B9
:1021A0000FB6F894DEBF0FBECDBFDF91CF911F9168
:1021B0000F91FF90EF90DF90CF90BF900895CF9355
:1021C000DF93CDB7DEB72B970FB6F894DEBF0FBE07
:1021D000CDBF4F83588769877A878B871E821D8280
:1021E00085E0FE013796DE01119601900D928A95E9
:1021F000E1F749815A816B817C818D819E812B968B
:102200000FB6F894DEBF0FBECDBFDF91CF910C9417
:102210000E17882309F4D8C0823871F40E94E10FA8
:1022200081FDD2C089E30E944F1A0E94141B89E3EA
:102230000E948C1A0C94141B833859F40E94E10FED
:1022400080FDC2C083E50E944F1A0E94141B83E5E3
:10225000EFCF843859F40E94E10F82FDB5C087E4C6
:102260000E944F1A0E94141B87E4E2CF9CEF980F44
:10227000913A18F40E944F1ADDCF90E2980F9830EF
:1022800050F4877091E001C0990F8A95EAF7892F81
:102290000E94CE1ACFCF9BE5980F933070F4853A09
:1022A00031F0863A39F083E890E00C94031081E82D
:1022B00090E0FBCF82E890E0F8CF98E5980F953159
:1022C00008F082C0883A09F440C0893A09F440C055
:1022D0008A3A09F440C08B3A09F440C08C3A09F4B8
:1022E00040C08B3B09F440C08C3B09F440C08D3AA0
:1022F00009F440C0803B09F440C08E3A09F440C064
:102300008F3A09F440C0813B09F440C0823B09F494
:1023100040C0833B09F440C0843B09F440C0853B86
:1023200009F440C0863B09F440C0873B09F440C033
:10233000883B09F440C0893B09F440C08A3B09F45A
:1023400040C090E080E00C94191082EE90E0FBCF4A
:1023500089EE90E0F8CF8AEE90E0F5CF85EB90E043
:10236000F2CF86EB90E0EFCF83EB90E0ECCF84EB05
:1023700090E0E9CF87EB90E0E6CF8CEC90E0E3CF04
:102380008DEC90E0E0CF83E891E0DDCF8AE891E04A
:10239000DACF82E991E0D7CF84E991E0D4CF81E22E
:1023A00092E0D1CF83E292E0CECF84E292E0CBCF35
:1023B00085E292E0C8CF86E292E0C5CF87E292E064
:1023C000C2CF8AE292E0BFCF0895882309F44BC0C0
:1023D000823871F40E94E10F81FF45C089E30E94B9
:1023E0004F1A0E94141B89E30E948C1A0C94141B30
:1023F000833859F40E94E10F80FF35C083E50E94C5
:102400004F1A0E94141B83E5EFCF843859F40E94C1
:10241000E10F82FF28C087E40E944F1A0E94141B1C
:1024200087E4E2CF9CEF980F913AF0F290E2980F98
:10243000983050F4877091E001C0990F8A95EAF7BF
:10244000892F0E94D41AD2CF9BE5980F933020F4A5
:1024500090E080E00C940310885A853120F490E0DD
:1024600080E00C9419100895882321F00E94CE1A60
:102470000C94141B0895882321F00E94D41A0C9404
:10248000141B08958F929F92AF92BF92DF92EF92AA
:10249000FF920F931F93CF93DF937C01D62FC72F0B
:1024A000FC01058102950F70128111110E94EB1A37
:1024B0000E94481AD82E882371F01123A1F080E2DF
:1024C0008D0F883080F082E00E94321A0E94481AF4
:1024D00091E0D82ED926EC2FE295EF70F0E0E2578C
:1024E000F74D0C942728D12CF6CF0C2F0F70C07FFE
:1024F00011F00295007F1123A9F0002359F080E22A
:102500008D0F883010F0D11109C0802F0E94CE1A93
:102510000E94141B8D2F0E94091114C0802F0E944D
:10252000DE1AF6CF8D2F0E94E511002359F080E2CC
:102530008D0F883010F0D11124C0802F0E94D41A42
:102540000E94141BDD2009F48FC10E94251A80FD12
:102550008BC1F70112820E941F1A0E949E18C701A8
:102560000E9440140E941F1ADF91CF911F910F917A
:10257000FF90EF90DF90BF90AF909F908F900C9462
:10258000BF18802F0E94E41ADBCFFC2FFF70BF2EF4
:10259000C07FC03219F0B29480EFB822DD2369F019
:1025A000D13029F1112369F1002359F0F701858118
:1025B00080FFB0CF8F70858304C0112361F00111BB
:1025C00004C08B2D0E943412BDCF8B2D0130D1F76A
:1025D0000E94FE1AB7CF011106C00E94011B8B2D6D
:1025E0000E943B12AFCF013009F4ACCFF6CF1123DC
:1025F00021F0063008F0A6CFE4CF053008F0A2CFD6
:10260000EECF002361F38D2F0E94E5119BCF8C2F1D
:1026100086958695837069F0813009F093CF8D2F70
:102620009C2F9370111102C090E080E00E9419105D
:1026300089CF8D2F9C2F9370111102C090E080E004
:102640000E9403107FCF8D2F112329F00E944C1E72
:102650000E94331F77CF0E94B41EFACF8C2F837055
:1026600009F047C011116ECF2D2F229526952770A6
:10267000220F220F6D2F6F70862E912CB12CA12C62
:10268000022E04C0880C991CAA1CBB1C0A94D2F709
:1026900060E070E0CB01D4FF0FC06FE070E080E03D
:1026A00090E004C0660F771F881F991F2A95D2F704
:1026B0006095709580959095C695C695C370C2300B
:1026C00051F080F4682979298A299B29C13071F059
:1026D0000E94471837CF682979298A299B290E94A7
:1026E000631830CF0E944718C501B4010E942B180F
:1026F00029CF8695112311F08C2F8170882309F43E
:1027000021CF2D2F229526952770220F220F6D2F76
:102710006F70862E912CB12CA12C022E04C0880C37
:10272000991CAA1CBB1C0A94D2F760E070E0CB0194
:10273000D4FF0FC06FE070E080E090E004C0660F4F
:10274000771F881F991F2A95D2F7609570958095FD
:102750009095C695C695C370C23051F080F4682933
:1027600079298A299B29C13071F00E942119EACE6A
:10277000682979298A299B290E943D19E3CE0E9464
:102780002119C501B4010E940519DCCEE0E2ED0F6C
:10279000E53108F04DC0F0E0E256F74D0C942728E3
:1027A000DF708C2F8F71112321F00E949E188D2FC6
:1027B00009CF0E94BF188D2F13CF112341F0053090
:1027C00008F0C0CE8C2F8F710E94E418BBCE06306B
:1027D00008F0B8CEF7CF8C2F8F71112339F00E94FB
:1027E0009E18B0CE8C2F8F711123C9F30E94BF1891
:1027F000A9CE112329F08C2F8F710E948918A2CEA7
:102800000E947F189FCE112349F0CF718C2F0E9418
:102810009E1863E08C2F0E94291A94CE81E00E94BA
:10282000321A023008F48ECE82E00E94321A8ACE2A
:10283000112329F001116ECE8C2F8F71D0CF011191
:10284000E2CE8C2F8F71D2CF4C2F4F706D2FC701DE
:102850000E94FB060E94A81775CE4C2F4F706D2F5B
:10286000C7010E949D086ECEDF91CF911F910F91FD
:10287000FF90EF90DF90BF90AF909F908F90089562
:102880000F931F93CF93DF93EC018B819C81892B56
:1028900029F08881998189238F3F29F4DF91CF9195
:1028A0001F910F910895CE010E9414078823B1F360
:1028B000688179818A810E94FB198C010E945919D3
:1028C0000E942018B801CE01DF91CF911F910F9186
:1028D0000C9442120E94EB1A0E94FB1A0E94C01A2A
:1028E0000E94141B0E94DF1F0E94331F90E080E0B3
:1028F0000E94031090E080E00C9419100E94DB1AF3
:102900000C946A140E94F119E92FE295EF70E250DD
:10291000EE3070F4F0E0ED54F74D0C942728803F32
:1029200019F020F4803E20F481E00895843FE1F323
:1029300080E00895803EC0F3813FD1F7F5CF93FB4F
:10294000882780F90895CF93DF9300D000D00F92AD
:10295000CDB7DEB70F900F900F900F900F90DF91D3
:10296000CF910895CF93DF9300D000D000D0CDB7A2
:10297000DEB726960FB6F894DEBF0FBECDBFDF914F
:10298000CF9108951F93CF93DF93C091890116E0F3
:1029900080918A018C1304C0DF91CF911F9108951B
:1029A000D0E01C9FF0011D9FF00D1124E557FE4F54
:1029B0004081518162817381848195810E94B2142A
:1029C0002196C770E5CF4091BB015091BC01609149
:1029D000BD017091BE018091BF019091C0010C9426
:1029E000B2141F93CF93DF938091C001807FC1F415
:1029F0008091BD018823A1F080918901C0918A0155
:102A00006091BB017091BC014091BE015091BF012A
:102A1000D62FD723DA01A095B09516E0C81304C0CD
:102A2000DF91CF911F91089590E04115510511F06C
:102A3000DF3F31F401968770F1CF2A0F3B1F17C09B
:102A4000189FF001199FF00D1124E557FE4F2181C9
:102A50002713F0CF20812613EDCF22812111EACF59
:102A6000238134812417350740F3241B350B283C80
:102A7000310500F72091C0012F7020612093C00123
:102A800026E0289FF001299FF00D1124E057FE4F0A
:102A900080818F70806180838BEB91E00E94401475
:102AA000DF91CF911F910C94C214BF92CF92DF920D
:102AB000EF92FF920F931F93CF93DF93CDB7DEB7C3
:102AC00061970FB6F894DEBF0FBECDBF8C0185E0D5
:102AD000F801DE011D9601900D928A95E1F7D8016B
:102AE0004C9111965C9111971296EC9012978091EF
:102AF000BE019091BF01009709F47FC12091BB01F5
:102B00003091BC01622F63236F3F09F476C11396A5
:102B1000CD90DC90B090BD01BB2009F413C1C81664
:102B2000D906D0F1F601E81BF90BCF01FF24F3948D
:102B3000883C910508F0F12C8091C001982F907F7E
:102B4000FF2009F4B6C091117FC0FE2C351329C0B7
:102B5000241327C0E11025C08F7080618093C001CD
:102B60000E94E3148BEB91E00E9440148091C0011D
:102B7000D80115968C938F2D61960FB6F894DEBF11
:102B80000FBECDBFDF91CF911F910F91FF90EF90BE
:102B9000DF90CF90BF900895809590958C0D9D1DEE
:102BA000C5CFCD2829F0852F84238F3F09F033C16D
:102BB00080E0B82FB170DB2E80FF3CC0809189018E
:102BC00020918A0136E0821315C04D875E878D857E
:102BD0009E850E94F119292F22952F702230F0F046
:102BE000243018F59F70F1F0F8019581907FD1F4B1
:102BF000D12C1EC090E0389FF001399FF00D1124B8
:102C0000E557FE4F6181651306C06081641303C000
:102C10006281E6120FC001968770D5CF9F7011F0C8
:102C2000882331F3805E883018F3C8010E94401475
:102C3000FD2CA1CFEE2009F49ECF8091C0018160D0
:102C40008093C001F12C97CF351306C0241304C024
:102C5000D801EE2009F49CC04D875E878D859E8546
:102C60000E948214882309F4D2C0EE2009F4CFC058
:102C70008091C001803270F02091BB013091BC0185
:102C800038872F831986DB86CA868C87CE01079604
:102C90000E94401486E0F801ABEBB1E001900D9288
:102CA0008A95E1F70E94F1140E94E314FF24F39443
:102CB00062CF911115C07C2DD98AC88A6E2D898961
:102CC0000E94A3148BEB91E00E94401486E0EBEB92
:102CD000F1E0DF011D928A95E9F70E94E3144BCFE2
:102CE000351312C0241310C0E1100EC0F801858303
:102CF000C8010E944014EBEBF1E086E0DF011D9279
:102D00008A95E9F7FB2C37CF4D875E878D859E85A9
:102D10000E948214882309F47AC0EE2009F477C057
:102D20008091C001803208F4B5CF2091BB01309171
:102D3000BC013A8329831B82DD82CC828E83CE0143
:102D40000196A6CFC816D90688F1F601E81BF90B43
:102D5000CF01F12C883C910508F047C0FE2CEE20F5
:102D600009F455C0351330C024132EC08091C00122
:102D700080FD21C0982F907FF1F0D80115968C939B
:102D80001597903F39F0982F907F905F8F70892B27
:102D900015968C93C8010E94401486E0F801ABEBB5
:102DA000B1E001900D928A95E1F797CF80959095CB
:102DB0008C0D9D1DCECF86E0F801ABEBB1E001900C
:102DC0000D928A95E1F7D7CE4D875E878D859E85DA
:102DD0000E94821481115ECF8091C0018160809336
:102DE000C001C8010E944014C6CE7C2DD98AC88A71
:102DF0006E2D89890E94A31469CFEE2041F04D8782
:102E00005E878D859E850E948214811143CFC80103
:102E10000E9440144BCF81E08E25CBCE1F93CF93E1
:102E2000DF93CDB7DEB72C970FB6F894DEBF0FBE99
:102E3000CDBF4F83588769877A878B879C87CE0160
:102E400007960E945515882369F08A859B85892BF2
:102E500039F04F815885842F85238F3F09F071C049
:102E600016E05FC086E0FE013796DE011196019004
:102E70000D928A95E1F78A859B85892B89F3888550
:102E80009F8189238F3F61F320918A0130E0C9013E
:102E9000019687709927409189014817190671F4A6
:102EA0000E947E1410928A011092890186E0EBEB59
:102EB000F1E0DF011D928A95E9F7D2CF96E0929F6B
:102EC000D001939FB00D1124A557BE4FFE0131963E
:102ED00001900D929A95E1F780938A010E94C214A5
:102EE000BFCF819FC001112485579E4F0E94551569
:102EF0008823E9F0E09189011E9FF0011124E55734
:102F0000FE4F4081518162817381848195810E944D
:102F1000B2148091890190E001968770992780937F
:102F200089018091890190918A018913DACF2C96C9
:102F30000FB6F894DEBF0FBECDBFDF91CF911F91CA
:102F4000089569857A858B859C850E94B21488CF07
:102F5000EF92FF920F931F93CF93DF938C01892BF6
:102F600081F0F12CEE24E394E8012196F80184919C
:102F7000843770F4843008F05FC08130B1F0823063
:102F8000A1F1DF91CF911F910F91FF90EF900895E4
:102F9000853709F44CC008F43DC09CE7980F903782
:102FA00080F78F770E94E51149C00E5F1F4FFE0129
:102FB000849190E2980F983060F48770FE2D01C0E4
:102FC000FF0F8A95EAF78F2F0E94EE1A0E94141BBA
:102FD00002C00E9409118F2D815030F2EFE9FFE00D
:102FE0003197F1F700C00000F7CF0E5F1F4FFE01D1
:102FF000849190E2980F983050F48770FE2D01C0B4
:10300000FF0F8A95EAF78F2F0E94F41ADFCF0E94F4
:10301000E511E1CF0E5F1F4FFE01C491C150D8F200
:103020008FE99FE00197F1F700C00000F7CF0E5F36
:103030001F4FFE01F490CFCF0E9409118E01CBCF1C
:1030400008956093F2017093F3018093F4019093DB
:10305000F5010C946A140F931F930091F2011091E3
:10306000F3012091F4013091F501DC01CB01802BBB
:10307000912BA22BB32B8093F2019093F301A09399
:10308000F401B093F5011F910F910C946A140F9302
:103090001F930091F2011091F3012091F4013091FE
:1030A000F501DC01CB0180239123A223B32380937C
:1030B000F2019093F301A093F401B093F5011F91F5
:1030C0000F910C946A140F931F930091F2011091C9
:1030D000F3012091F4013091F501DC01CB0180274F
:1030E0009127A227B3278093F2019093F301A09335
:1030F000F401B093F5011F910F910C946A14109292
:10310000EE011092EF011092F0011092F1010C9477
:103110006A1441E050E060E070E004C0440F551FC5
:10312000661F771F8A95D2F74093EE015093EF0107
:103130006093F0017093F1010C946A1441E050E047
:1031400060E070E004C0440F551F661F771F8A952A
:10315000D2F78091EE019091EF01A091F001B09132
:10316000F101842B952BA62BB72B8093EE01909326
:10317000EF01A093F001B093F1010C946A1441E0C7
:1031800050E060E070E004C0440F551F661F771FD9
:103190008A95D2F740955095609570958091EE0193
:1031A0009091EF01A091F001B091F101842395235A
:1031B000A623B7238093EE019093EF01A093F00133
:1031C000B093F1010C946A1441E050E060E070E0CB
:1031D00004C0440F551F661F771F8A95D2F7809150
:1031E000EE019091EF01A091F001B091F1018427DF
:1031F0009527A627B7278093EE019093EF01A09320
:10320000F001B093F1010C946A140F931F93009195
:10321000EE011091EF012091F0013091F101DC01FC
:10322000CB01802B912BA22BB32B8093EE0190939B
:10323000EF01A093F001B093F1011F910F910C9455
:103240006A140F931F930091EE011091EF012091EA
:10325000F0013091F101DC01CB0180239123A22305
:10326000B3238093EE019093EF01A093F001B0930C
:10327000F1011F910F910C946A140F931F93009109
:10328000EE011091EF012091F0013091F101DC018C
:10329000CB0180279127A227B3278093EE0190933B
:1032A000EF01A093F001B093F1011F910F910C94E5
:1032B0006A140895990F990F990F890F982F977095
:1032C00041E001C0440F9A95EAF786958695869568
:1032D00095E0899FF0011124EF53FE4F30E020E08C
:1032E00070E05191DF011197CB01022E02C096953B
:1032F00087950A94E2F78170819585278423852735
:103300008C932F5F3F4F2530310559F70895990F62
:10331000990F990F890F982F9770869586958695A6
:1033200025E0829FF0011124EF53FE4F50E040E072
:1033300080E0219130E0092E02C0369527950A944D
:10334000E2F721703327042E01C0220F0A94EAF716
:10335000822B4F5F5F4F4530510559F70895BF925B
:10336000CF92DF92EF92FF920F931F93CF93DF9351
:103370008C01C090EE01D090EF01E090F001F09050
:10338000F1018091F2019091F301A091F401B091CB
:10339000F501C82AD92AEA2AFB2ACFE1D0E0BC2EBF
:1033A000D701C6010C2E04C0B695A79597958795B1
:1033B0000A94D2F780FD0EC0219788F7B12C8B2D8F
:1033C000DF91CF911F910F91FF90EF90DF90CF9001
:1033D000BF900895B8018C2F0E94BB08019761F33C
:1033E000EECFCF93DF93EC010E94AF19BE01DF91C6
:1033F000CF910C94BB081F93CF93DF93EB01909177
:103400008801992331F0CB01DF91CF911F910C946A
:10341000F119882379F0CB010E94AF19182F682F7A
:10342000CE010E945A19BE01812FDF91CF911F91C9
:103430000C94BB08CB010E948719182FF4CF809100
:10344000F60185958595859508958091F60187709B
:10345000089598E0899F90011124622B6093F601F2
:103460000C949E189091F601809589238093F60123
:10347000282F277061F4282F082E000C330B921789
:10348000130629F08595859585950C94BF180895A8
:103490009091F601977081E009F480E00895909191
:1034A00013019923E1F09091540297FF18C0E82F7F
:1034B000E695E695E695EF3139F1209101013091DD
:1034C0000201E20FF32FF11D877021E030E001C00F
:1034D000220F8A95EAF78181822B818308952091BA
:1034E000010130910201F90132969FEF40E05191C4
:1034F000851751F09F3F19F4511101C0942F4F5F70
:103500004E31A9F79F3F09F40895290F311D97FD0A
:103510003A95F90182830895909113019923F1F06E
:103520009091540297FF1AC0E82FE695E695E6952C
:10353000EF3129F12091010130910201E20FF32FC7
:10354000F11D282F277081E090E001C0880F2A9597
:10355000EAF7809591818923818308952091010163
:1035600030910201F9013296205E3F4F919189130B
:1035700003C0DF0111971C92E217F307B9F7089512
:1035800081E090E0E0910101F0910201E80FF91F64
:103590001082019680329105A9F7089590911A0240
:1035A000892B80931A020895809590911A0298238E
:1035B00090931A02089510921A0208959091190298
:1035C000892B809319020895809590911902982370
:1035D000909319020895109219020895909118027B
:1035E000892B809318020895809590911802982352
:1035F0009093180208951092180208958093F7018D
:1036000008951092F701089520910101309102016F
:10361000F9013196205E3F4F80E0919191118F5FCB
:10362000E217F307D1F70895E0910101F09102014B
:1036300080911A028083E0910101F0910201808162
:1036400090911902892B8083E0910101F091020190
:10365000808190911802892B80839091F7019923A2
:1036600061F0E0910101F09102018081892B80835A
:103670000E94041B81111092F70180910101909129
:1036800002010C94ED0F6DEE7EEF90E080E00E9461
:10369000642860E082E090E00E94462860E083E0D9
:1036A00090E00E94462860E084E090E00E94462876
:1036B00060E085E090E00E94462840E050E0BA01DA
:1036C00088E090E00C94582890E080E00E94402828
:1036D00021E08D3E9E4F09F020E0822F089582E088
:1036E00090E00C943228682F82E090E00C944628F9
:1036F00083E090E00C943228682F83E090E00C94F3
:10370000462884E090E00C943228682F84E090E012
:103710000C94462880915A02843039F110921C0290
:1037200088E190E020E40FB6F894A89580936000BB
:103730000FBE2093600080E00E949B0883B7817FCA
:10374000846083BF83B7816083BF7894889583B793
:103750008E7F83BF0FB6F894A89580916000886132
:1037600080936000109260000FBE08950895089540
:10377000CF930E94B61B0E94470B0E94B71BC0E06C
:103780008C2F0E94EB0B811105C0CF5FC930C1F7B0
:10379000CF91089581E0FCCF0E947E140E94E10F3A
:1037A0000C949B081F921FB61F9211248F939F9316
:1037B000AF93BF9380911C02811113C0809150027E
:1037C00090915102A0915202B09153024196A11DD5
:1037D000B11D8093500290935102A0935202B09376
:1037E0005302BF91AF919F918F911F901FBE1F9069
:1037F000189582E084BD93E095BD9AEF97BD8093C4
:103800006E0008952FB7F894809150029091510264
:10381000A0915202B09153022FBF0895CF92DF9230
:10382000EF92FF920F931F932FB7F894409150029D
:103830005091510260915202709153022FBF6A0160
:103840007B01EE24FF248C0130E020E0C016D1067D
:10385000E206F30650F0481B590BCA011F910F9165
:10386000FF90EF90DF90CF90089541505109F3CF32
:103870001F921FB61F9211248F939F93AF93BF93F4
:103880008091500290915102A0915202B091530246
:103890000196A11DB11D8093500290935102A093F7
:1038A0005202B0935302BF91AF919F918F911F909D
:1038B0001FBE1F9018950E94DB23F8942FEF87EA14
:1038C00091E6215080409040E1F700C0000087E081
:1038D00090EBDC018093630290936402A0936502F5
:1038E000B093660288E19CE00FB6F894A8958093A7
:1038F00060000FBE90936000FFCFCF92DF92EF92F7
:10390000FF920F931F93CF93C0E0E82EF12C8C2FE2
:103910000E94EB0B10E000E0C82ED12CC601002E57
:1039200002C0959587950A94E2F780FD11C00F5F5C
:103930001F4F0830110591F7CF5FC93041F780E084
:10394000CF911F910F91FF90EF90DF90CF9008954E
:10395000602F7C2F80E00E949E08E816F90639F758
:1039600081E0EECFCF93C82F8CE20E947D1C88238C
:1039700021F08C2FCF910C947D1C80E0CF91089585
:10398000CF930E94641B811102C00E94431BC5E6B5
:1039900008C00E94470B8FE39CE90197F1F700C034
:1039A0000000C150B1F789E20E94B21C8111EFC042
:1039B0008AE20E94B21C81110E94431B85E00E9492
:1039C000B21C81110E945B1C0E946F1B80931B0222
:1039D00087E00E94B21C882371F08BE10E94B21C28
:1039E000882309F4B1C090911B02892F8D7F91FF2C
:1039F000826080931B0280911B020E94731B0E94B5
:103A0000811B90E0909355028093540280EE0E94B7
:103A1000B21C882341F090915402892F8E7F90FF31
:103A200081608093540289E30E94B21C882341F094
:103A300090915402892F8D7F91FF82608093540270
:103A400082EE0E94B21C882341F090915402892F8B
:103A50008B7F92FF84608093540286EE0E94B21C9A
:103A6000882341F090915402892F877F93FF8860CB
:103A70008093540283EE0E94B21C882341F09091FF
:103A80005402892F8F7E94FF80618093540285E3D6
:103A90000E94B21C882341F090915402892F8F7D9F
:103AA00095FF80628093540281E30E94B21C8823B8
:103AB00041F090915402892F8F7B96FF8064809310
:103AC000540281E10E94B21C882341F0909154027B
:103AD000892F97FB87F98058809354028091540274
:103AE0000E94851B87E20E94B21CC82F8EE10E94B3
:103AF000B21C8111C2608FE10E94B21C8111C460AE
:103B000080E20E94B21C8111C86081E20E94B21C56
:103B10008111C06182E20E94B21C8111C06283E205
:103B20000E94B21C8111C06484E20E94B21C8823EE
:103B300041F1C0688C2F0E947C1B6C2F70E090E0DC
:103B400080E0CF910C9421188EE00E94B21C882353
:103B500039F090911B02892F8B7F92FF846049CFAF
:103B600080E10E94B21C90911B02882329F0892FCA
:103B7000877F93FF88603DCF892F8E7F90FF816084
:103B800038CFC111D7CF0E94781B682FD7CFCF91E4
:103B9000089580911F0280FF12C06091060185E0A8
:103BA000689FB00111247595679575956795603884
:103BB0007105A8F561157105A1F1862F089581FFA2
:103BC00009C06091060185E0689FB00111247595D8
:103BD0006795EDCF6091060182FD0AC080912002B9
:103BE0008823D1F09091050160910601891728F092
:103BF00085E0689FB0011124DACF869FB0011124BF
:103C000085E0869F9001879F300D1124692F70E019
:103C1000C9010E941328CBCF65E070E0CECF8FE7BB
:103C2000089581E0089580911F0280FF0CC060918B
:103C3000040170E075956795759567956115710537
:103C400049F1862F089581FF06C06091040170E05C
:103C500075956795F3CF6091040182FD0BC090913B
:103C600020029923A1F0609103018091040196172D
:103C700038F0682F70E06038710500F38FE7089521
:103C8000899FC001112470E00E941328F4CF61E0E5
:103C900070E0D7CF81E00895803F31F40E94C91DC4
:103CA0008195809323020895813F19F40E94C91DD4
:103CB000F8CF823F31F40E94C91D81958093220282
:103CC0000895833F19F40E94C91DF8CF893F29F454
:103CD0000E94131E8093240208958A3F21F40E94BB
:103CE000131E8195F7CF8B3F31F40E94131E8195EF
:103CF0008093250208958C3F19F40E94131EF8CF7B
:103D0000843F31F4809121028160809321020895E3
:103D1000853F21F4809121028260F7CF863F21F414
:103D2000809121028460F1CF873F21F480912102AC
:103D30008860EBCF883F21F4809121028061E5CF3C
:103D40008D3F31F480911F02816080931F0208959E
:103D50008E3F21F480911F028260F7CF8F3FB9F729
:103D600080911F028460F1CF90912202803F41F444
:103D70008091230287FD10922302992371F0089508
:103D8000813F29F4809123021816ACF3F6CF823FCD
:103D900081F497FFF2CF109222028091230290913A
:103DA0002402892B90912502892B49F71092200239
:103DB0000895833F19F4191674F3DFCF893F39F45E
:103DC000809124021816CCF610922402D6CF8A3F96
:103DD00029F48091240287FFD0CFF6CF8B3F39F4AE
:103DE0008091250287FFC9CF10922502C6CF8C3F54
:103DF00029F4809125021816BCF3BFCF843F31F41B
:103E0000809121028E7F80932102B7CF853F21F4DC
:103E1000809121028D7FF7CF863F21F4809121028E
:103E20008B7FF1CF873F21F480912102877FEBCFF9
:103E3000883F21F4809121028F7EE5CF8D3F31F4C0
:103E400080911F028E7F80931F0297CF8E3F21F4B7
:103E500080911F028D7FF7CF8F3F09F08ECF809129
:103E60001F028B7FF0CF81E292E00E94F80F0E9448
:103E7000021C90931E0280931D0208951F93CF93FE
:103E8000DF9380911D0290911E020E940E1CAC01D6
:103E9000909120022091070130E0911106C02091FD
:103EA00008018AE0289F900111244217530778F0F7
:103EB00020912202C0912302D09124021091250268
:103EC000211109C08C2F8D2B812B09F074C0DF913B
:103ED000CF911F9108959F3F19F09F5F909320020B
:103EE000121624F40E94C91D80932202809122029E
:103EF00087FF05C00E94C91D8195809322021C1670
:103F000024F40E94C91D809323028091230287FF1D
:103F100005C00E94C91D81958093230260912202F1
:103F2000662331F1C0912302CC2311F1062E000C3F
:103F3000770B880B990B0E94062723E333E343E3B7
:103F40005FE30E946A270E94CE26609322026C2FB4
:103F5000CC0F770B880B990B0E94062723E333E3E2
:103F600043E35FE30E946A270E94CE266093230208
:103F70001D1624F40E94131E8093240280912402B3
:103F800087FF05C00E94131E81958093240211169D
:103F900024F40E94131E809325028091250287FF3E
:103FA00005C00E94131E819580932502DF91CF9159
:103FB0001F910C94331F9F3F09F08FCFA0CF85E056
:103FC000E1E2F2E0DF011D928A95E9F7109220020A
:103FD00010921F020895809146020895CF93DF93B7
:103FE00000D00F92CDB7DEB79C0180915A02843089
:103FF00019F593E099833B832A839093E9008FEF2F
:104000009091E800815095FD06C095ED9A95F1F7E5
:1040100000008111F5CF8091E80085FF0DC050E0D0
:1040200040E063E070E0CE0101960E944D22809155
:10403000E8008E778093E8000F900F900F90DF914B
:10404000CF910895CF93DF9300D00F92CDB7DEB715
:1040500020915A02243031F522E0298380589109B9
:104060009B838A8383E08093E9008FEF9091E8003F
:10407000815095FD06C095ED9A95F1F700008111EC
:10408000F5CF8091E80085FF0DC050E040E063E08F
:1040900070E0CE0101960E944D228091E8008E775B
:1040A0008093E8000F900F900F90DF91CF910895CB
:1040B0009C0180915A028430F9F482E08093E900F7
:1040C0009FEF8091E800915085FD06C085ED8A95AF
:1040D000F1F700009111F5CF8091E80085FF0CC049
:1040E00050E040E065E070E0C9010E944D228091FF
:1040F000E8008E778093E8000895CF93DF93EC017A
:1041000080915A028430F1F4909113019923E9F0DF
:104110009091540297FF19C08093E9008FEF90911E
:10412000E800815095FD06C095E19A95F1F70000F1
:104130008111F5CF8091E80050E040E060E270E04E
:1041400085FD1AC0DF91CF91089581E08093E90049
:104150008FEF9091E800815095FD06C095ED9A95FE
:10416000F1F700008111F5CF8091E80085FFEACFDB
:1041700050E040E068E070E0CE010E944D22809166
:10418000E8008E778093E80080E2FE01A6E2B2E0CC
:1041900001900D928A95E1F7D5CF80915902811156
:1041A00009C00E94DB230E9438248091E2008460D1
:1041B0008093E20008951092590208950895089599
:1041C0000C94CC1B42E061EC81E00E94592342E058
:1041D00061EC82E00E94592342E061EC83E00E949E
:1041E000592342E261EC84E00C94592380915C02F3
:1041F000833009F455C030F4813071F1823009F414
:1042000091C008958A3009F47DC08B3009F463C0F1
:10421000893009F044C080915B02813209F03FC0CF
:1042200080915F0290916002009711F00397B9F5B9
:104230008091E800877F8093E8008091E80082FF0A
:104240002AC08091F100809346028091E8008B772C
:104250008093E8000C948D2380915B02813AF9F4FD
:104260008091E800877F8093E80080915F029091C1
:104270006002892B61F460E286E292E070E00E94C5
:104280009C228091E8008B778093E800089560E09D
:1042900090E080E0F3CF80915A028111CECF089553
:1042A00080915B02813AD9F780915F029091600220
:1042B000892BA9F78091E800877F8093E80080919F
:1042C000E80080FFFCCF809113018093F100809182
:1042D000E8008E77BDCF80915B02813201F780913B
:1042E0005F0290916002892BD1F68091E800877F70
:1042F0008093E8000E948D2380915D0280931301DA
:104300000C947E1480915B02813249F68091E80022
:10431000877F8093E8000E948D2380915E028093C6
:104320004702089580915B02813A09F0B8CF8091ED
:10433000E800877F8093E8008091E80080FFFCCF51
:1043400080914702C2CF84B7877F84BF0FB6F894AD
:10435000A895809160008861809360001092600051
:104360000FBE80E880936100109261000E943010BF
:104370000E94DB230E9438248091E20084608093B5
:10438000E20078940E94B2260E94321089E091E007
:104390000E94DC0F80915A02853029F00E943A1069
:1043A0000E94A90FF7CF0E948A1B80915802882390
:1043B00089F30E94B81B882369F30E943722EACF51
:1043C000292F33272330310521F168F421303105BD
:1043D00009F443C02230310509F444C090E080E084
:1043E00030E020E026C02132310551F12232310582
:1043F000A9F7643098F770E0FB01EE0FFF1FE75D4F
:10440000FE4F208131816B5D7E4FFB01808190E00A
:1044100010C099278130910581F0009729F002970B
:10442000E9F6E9EBFBE002C0E5EEFBE0849190E009
:104430009F01FA01318320830895EDECFBE0F6CF74
:10444000643060F6E62FF0E0EE0FFF1FEF5CFE4FEA
:104450002081318189E090E0ECCF82E190E026E597
:104460003CE0E7CF8DE690E029EE3BE0E2CF80E153
:1044700089BD82E189BD09B400FEFDCF8091D800DD
:104480008F7D8093D8008091E00082608093E0006F
:104490008091E00081FDFCCF0895AF92BF92CF9252
:1044A000DF92FF920F931F93CF93DF936C01EB0189
:1044B0008A010E94AC23F82E811123C00115110539
:1044C00039F0F80180819181C81BD90BC80ED91E23
:1044D000B12CA12C2097A9F08091E80085FD22C085
:1044E0008091E8008E778093E80001151105A1F016
:1044F000F80180819181A80EB91EB182A08285E069
:10450000F82E8F2DDF91CF911F910F91FF90DF90AB
:10451000CF90BF90AF9008950E94AC238823D1F232
:10452000F82EEFCFF60181916F018093F100219772
:10453000FFEFAF1ABF0ACECFFC01809161029091CC
:10454000620286179707A0F06115710529F4909112
:10455000E8009E779093E80090E06115710551F4B2
:10456000911108C08091E80082FF34C080E0089576
:10457000BC01F2CF80915A028823C1F18530C1F18C
:104580008091E80083FD30C08091E80082FDEACF91
:104590008091E80080FFE1CF8091F3002091F2004C
:1045A000382F6115710519F02830310558F091E068
:1045B0002830310509F090E02091E8002E77209313
:1045C000E800CBCF81918093F100615071092F5F9A
:1045D0003F4FE7CF80915A02882341F0853041F068
:1045E0008091E80083FFBECF81E0089582E00895C6
:1045F00083E00895FC018091610290916202861728
:104600009707A0F06115710529F48091E8008E7775
:104610008093E80090E06115710551F4911108C094
:104620008091E80082FF35C080E00895BC01F2CFA0
:1046300080915A028823C9F18530C9F18091E80040
:1046400083FD31C08091E80082FDEACF8091E800CF
:1046500080FFE1CF8091F3002091F200382F6115A7
:10466000710519F02830310558F091E028303105F6
:1046700009F090E08091E8008E778093E800CBCF3E
:1046800084918093F1003196615071092F5F3F4F03
:10469000E6CF80915A02882341F0853041F0809125
:1046A000E80083FFBDCF81E0089582E0089583E0B4
:1046B0000895982F973028F08F708093E90081E05B
:1046C00008959093E900242F762F50E0981731F049
:1046D0007091EC002091ED005091F00021FD02C09E
:1046E0009F5FE8CF3091EB003E7F3093EB0030913D
:1046F000ED003D7F3093ED003091EB003160309361
:10470000EB007093EC002093ED005093F0002091AB
:10471000EE0027FDE5CF80E0089580915B0287FFE2
:1047200013C08091E80082FF06C08091E8008B777B
:104730008093E80004C080915A028111F2CF08955D
:1047400080915A028823D9F38091E80080FFF8CF46
:104750008091E8008E77ECCF2091E4003091E50065
:1047600085E6A9019091EC0090FF06C09091E800C9
:1047700090FF06C080E008959091E80092FDFACF86
:1047800090915A02992389F0953089F09091EB002D
:1047900095FD0FC02091E4003091E50042175307CA
:1047A00009F38150F1F684E0089582E0089583E0F2
:1047B000089581E008950E9449240E945124E0EE6A
:1047C000F0E0808181608083E8EDF0E080818F7788
:1047D000808319BCA7EDB0E08C918E7F8C93808193
:1047E0008F7E80831092590208950F931F93CF9369
:1047F000DF930E9449240E945124C8EDD0E08881B3
:104800008F77888388818068888388818F7D88837B
:1048100019BC10925A02109256021092580210922D
:10482000570200EE10E0F80180818B7F8083888141
:104830008160888342E060E080E00E945923E1EEDD
:10484000F0E080818E7F8083E2EEF0E08081816005
:104850008083808188608083F80180818E7F80835F
:10486000888180618883DF91CF911F910F91089596
:10487000E8EDF0E080818F7E8083E7EDF0E08081DD
:104880008160808384E082BF81E0809359020C9430
:10489000F523E8EDF0E080818E7F80831092E200C6
:1048A00008951092DA001092E10008951F920F927D
:1048B0000FB60F9211242F933F934F935F936F93F3
:1048C0007F938F939F93AF93BF93EF93FF938091C9
:1048D000E10082FF0BC08091E20082FF07C080915F
:1048E000E1008B7F8093E1000E94B1268091DA0085
:1048F00080FF19C08091D80080FF15C08091DA0038
:104900008E7F8093DA008091D90080FF94C080E18F
:1049100089BD82E189BD09B400FEFDCF81E08093AD
:104920005A020E94CD208091E10080FF19C0809141
:10493000E20080FF15C08091E2008E7F8093E2004C
:104940008091E20080618093E2008091D8008062D3
:104950008093D80019BC85E080935A020E94DF2022
:104960008091E10084FF29C08091E20084FF25C08E
:1049700080E189BD82E189BD09B400FEFDCF80914F
:10498000D8008F7D8093D8008091E1008F7E809346
:10499000E1008091E2008F7E8093E2008091E2004E
:1049A00081608093E20080915602882309F449C017
:1049B00084E080935A020E94E0208091E10083FF0E
:1049C00029C08091E20083FF25C08091E100877FAC
:1049D0008093E10082E080935A0210925602809107
:1049E000E1008E7F8093E1008091E2008E7F8093D2
:1049F000E2008091E20080618093E20042E060E0AA
:104A000080E00E9459238091F00088608093F0003C
:104A10000E94DE20FF91EF91BF91AF919F918F9106
:104A20007F916F915F914F913F912F910F900FBEAA
:104A30000F901F90189519BC10925A020E94DB200B
:104A400072CF8091E30087FD02C081E0B2CF83E0A6
:104A5000B0CF1F920F920FB60F9211242F933F9356
:104A60004F935F936F937F938F939F93AF93BF9376
:104A7000CF93EF93FF93C091E900CF708091EC004A
:104A80001092E9008091F000877F8093F000789485
:104A90000E9465251092E9008091F0008860809363
:104AA000F000C093E900FF91EF91CF91BF91AF91DA
:104AB0009F918F917F916F915F914F913F912F9136
:104AC0000F900FBE0F901F9018951F93CF93DF93F9
:104AD000CDB7DEB7AA970FB6F894DEBF0FBECDBF35
:104AE0008BE592E02091F100FC012193CF01F2E0EF
:104AF00083369F07B9F70E94F6208091E80083FF74
:104B000082C080915B0290915C029A3008F07BC079
:104B1000E92FF0E0EF53F74D0C942728803881F00F
:104B2000823809F070C080915F028F708093E90035
:104B30008091EB0085FB882780F91092E90006C080
:104B40008091570290915802911182609091E800F3
:104B5000977F9093E8008093F1001092F10080918C
:104B6000E8008E77F9C0882309F4E6C0823009F0A6
:104B70004AC080915D028111EAC080915F028F700E
:104B800009F441C08093E9002091EB0020FFDFC0D1
:104B9000933031F48091EB0080628093EB00D7C0BA
:104BA0009091EB0090619093EB0021E030E001C028
:104BB000220F8A95EAF72093EA001092EA0080918A
:104BC000EB008860EACF81111EC010915D021F7753
:104BD0008091E3008078812B8093E3008091E8004E
:104BE000877F8093E8000E948D238091E80080FFFA
:104BF000FCCF8091E30080688093E30082E0111194
:104C000083E080935A028091E80083FF0AC080917C
:104C1000E800877F8093E8008091EB0080628093BA
:104C2000EB00AA960FB6F894DEBF0FBECDBFDF91A2
:104C3000CF911F9108958058823028F780915D02AE
:104C400090915E028C3D23E09207A1F583E08A8378
:104C50008AE289834FB7F894DE01139620E03EE0A4
:104C600051E2E32FF0E050935700E49120FF03C09E
:104C7000E295EF703F5FEF708E2F90E0EA30C0F06A
:104C8000C7968D939D932F5F243159F74FBF809125
:104C9000E800877F8093E8006AE270E0CE01019629
:104CA0000E949C228091E8008B778093E800ABCF34
:104CB000C096E7CFAE014F5F5F4F60915F020E94E9
:104CC000E021BC01892B09F49ECF9091E800977FE9
:104CD0009093E80089819A810E94FA22E3CF80387C
:104CE00009F091CF8091E800877F8093E800809160
:104CF00056028093F10033CF811185CF90915D02F0
:104D0000923008F080CF8091E800877F8093E800A0
:104D1000909356020E948D2380915602882311F0B1
:104D200084E005C08091E30087FDFACF81E08093A5
:104D30005A020E94E22067CF80915D02813009F023
:104D400062CF81E0933009F080E0809358021092A6
:104D5000E9008091E800877F8093E8000E948D231E
:104D600052CF0895CF9380915A02882399F0C09131
:104D7000E900CF708091EC0080FD0EC080E0C82B70
:104D80001092E9008091E80083FD0E946525CF70B4
:104D9000C093E900CF91089580E8F1CF0E94D52615
:104DA0006894B1110C94642708950E94492788F0F3
:104DB0009F5798F0B92F9927B751B0F0E1F0660FDF
:104DC000771F881F991F1AF0BA95C9F714C0B13020
:104DD00091F00E946327B1E008950C946327672F38
:104DE000782F8827B85F39F0B93FCCF3869577954F
:104DF0006795B395D9F73EF4909580957095619538
:104E00007F4F8F4F9F4F0895E89409C097FB3EF462
:104E100090958095709561957F4F8F4F9F4F992307
:104E2000A9F0F92F96E9BB279395F6958795779585
:104E30006795B795F111F8CFFAF4BB0F11F460FF45
:104E40001BC06F5F7F4F8F4F9F4F16C0882311F09D
:104E500096E911C0772321F09EE8872F762F05C0B1
:104E6000662371F096E8862F70E060E02AF09A954C
:104E7000660F771F881FDAF7880F9695879597F941
:104E8000089557FD9058440F551F59F05F3F71F03A
:104E90004795880F97FB991F61F09F3F79F08795A1
:104EA0000895121613061406551FF2CF4695F1DF2A
:104EB00008C0161617061806991FF1CF86957105BA
:104EC000610508940895E894BB2766277727CB01EE
:104ED00097F908950E947D270C94EE270E94E02701
:104EE00038F00E94E72720F0952311F00C94D72783
:104EF0000C94DD2711240C9464270E94412770F341
:104F0000959FC1F3950F50E0551F629FF001729F6E
:104F1000BB27F00DB11D639FAA27F00DB11DAA1F7D
:104F2000649F6627B00DA11D661F829F2227B00DCA
:104F3000A11D621F739FB00DA11D621F839FA00D55
:104F4000611D221F749F3327A00D611D231F849FA5
:104F5000600D211D822F762F6A2F11249F575040FC
:104F60009AF0F1F088234AF0EE0FFF1FBB1F661F77
:104F7000771F881F91505040A9F79E3F510580F040
:104F80000C94D7270C9464275F3FE4F3983ED4F346
:104F9000869577956795B795F795E7959F5FC1F7E4
:104FA000FE2B880F911D9695879597F9089597F98F
:104FB0009F6780E870E060E008959FEF80EC0895BF
:104FC00000240A94161617061806090608950024E8
:104FD0000A9412161306140605060895092E039462
:104FE000000C11F4882352F0BB0F40F4BF2B11F4D6
:104FF00060FF04C06F5F7F4F8F4F9F4F0895AA1BC4
:10500000BB1B51E107C0AA1FBB1FA617B70710F0B3
:10501000A61BB70B881F991F5A95A9F780959095E5
:10502000BC01CD01089597FB072E16F4009407D01C
:1050300077FD09D00E94FF2707FC05D03EF490952C
:1050400081959F4F0895709561957F4F0895EE0F5C
:10505000FF1F0590F491E02D099481E090E0F89411
:105060000C947A28F999FECF92BD81BDF89A9927C0
:1050700080B50895A6E1B0E044E050E00C946C28BF
:10508000A8E1B0E042E050E00C946C28262FF9999A
:10509000FECF92BD81BDF89A019700B4021639F097
:1050A0001FBA20BD0FB6F894FA9AF99A0FBE089568
:1050B0000396272F0E9447280E944628252F0E94EA
:1050C0004728242F0C9447280196272F0E94472811
:1050D0000C944628DC01CB01FC01F999FECF06C0F7
:1050E000F2BDE1BDF89A319600B40D9241505040A6
:1050F000B8F70895F894FFCF0608120816081A08A2
:105100001E08220826082A082E08320836083A08FF
:105110003E08420846084A084E08520875127512A1
:10512000C512C51207132313A212A2122E13A21224
:10513000C613C6132414A212A2122D14D013D01316
:10514000D013D013D013D013D013D013D013D01347
:10515000D013D013D013D013D013D013DD13EB130F
:10516000F213F91303148F148F14981498149A14CB
:105170009814981498148F148F149F1498149814DA
:105180009F148E25B3250326B3250326E3251B266E
:0651900003266F267C26B9
:10519600FFF8012808140A321EEB1F7D2058202232
:1051A60020EE1F0197C634353632333191929094F2
:1051B60066F7F6F5F4404D3639240DD70CA10C6888
:0A51C6000CFB0B140C2D0C460C0022
:0200000400807A
:040263000000000097
:00000001FF
